S01700004763634170706C69636174696F6E312E737265635B
S11300000C942A000C943F000C943F000C943F0085
S11300100C943F000C943F000C943F000C943F0060
S11300200C943F000C943F000C943F000C943F0050
S11300300C943F000C943F000C943F000C943F0040
S11300400C943F000C943F000C943F000C943F0030
S11300500C943F0011241FBECFE5D8E0DEBFCDBF16
S113006010E0A0E6B0E0EEE9F2E002C005900D92E7
S1130070A038B107D9F70E9441000C944D010C94AB
S11300800000CF93DF9300D01F92CDB7DEB70E945C
S1130090DF00AE014F5F5F4F60E082E00E942A0103
S11300A0F82EAE014E5F5F4F61E082E00E942A01AC
S11300B0082FAE014D5F5F4F62E082E00E942A018B
S11300C0182FF1100DC08981811105C041E060E055
S11300D00E94F40005C040E060E080E00E94F4006B
S11300E001110DC08A81811105C041E061E00E94C7
S11300F0F40005C040E061E080E00E94F4001111CA
S1130100C8CF8B81811105C041E062E00E94F400F8
S1130110C0CF40E062E080E00E94F400BACF8530B6
S113012008F045C0693008F044C0433008F043C0CB
S113013090E0FC01EE0FFF1F8E0F9F1FEE27FF279D
S1130140E81BF90BF99641110CC0218181E090E084
S113015002C0880F991F6A95E2F7822B818380E0A1
S11301600895413089F4218181E090E002C0880F34
S1130170991F6A95E2F7982F909592239183928123
S1130180892B828380E008954230B9F4218181E093
S113019090E002C0880F991F6A95E2F78095922F2C
S11301A09823918392818923828380E0089582E059
S11301B0089583E0089584E0089580E00895CF933E
S11301C0C0E00EC06C2F6770EC2FF0E0E05AFF4FD8
S11301D040818C2F8695869586950E948F00CF5FEF
S11301E0C03280F3CF910895853060F5693060F5B1
S11301F0423060F590E0FC01EE0FFF1F8E0F9F1F51
S1130200EE27FF27E81BF90BF99641110DC0228157
S113021081E090E002C0880F991F6A95E2F780950B
S11302208223828380E00895413091F4228181E029
S113023090E002C0880F991F6A95E2F7822B8283AF
S113024080E0089582E0089583E0089585E00895AC
S113025080E008958530D8F46930D8F4411551050B
S1130260D1F090E0FC01EE0FFF1F8E0F9F1FEE27D1
S1130270FF27E81BF90B81AD90E002C095958795A7
S11302806A95E2F78170FA01808380E0089582E044
S1110290089583E0089587E00895F894FFCF61
S113029E000000000000000000000000000000004C
S11302AE0101010000000000000000000000000039
S9030000FC
