:100000000C942A000C9447000C9447000C94470071
:100010000C9447000C9447000C9447000C94470044
:100020000C9447000C9447000C9447000C94470034
:100030000C9447000C9447000C9447000C94470024
:100040000C9447000C9447000C9447000C94470014
:100050000C94470011241FBECFE5D8E0DEBFCDBF12
:1000600010E0A0E6B0E0E6E9F2E002C005900D92F3
:10007000AC36B107D9F720E0ACE6B0E001C01D9284
:10008000AC36B207E1F70E94B8000C9449010C9419
:100090000000CF93C0E013C0EC2FF0E0CF01880F39
:1000A000991FE80FF91FE05AFF4F9081818160E0AE
:1000B00020E1929F800D11240E940701CF5FC43080
:1000C00058F3CF910895853008F04CC0623008F0A5
:1000D0004BC090E0FC01EE0FFF1FE80FF91FE05A44
:1000E000FF4F228121111EC061110EC0FC01EE0FD5
:1000F000FF1F8E0F9F1FFC01E05AFF4F618141E0FF
:1001000080810E94D1000895FC01EE0FFF1F8E0F29
:100110009F1FFC01E05AFF4F618140E080810E94F7
:10012000D1000895213011F561110EC0FC01EE0FD0
:10013000FF1F8E0F9F1FFC01E05AFF4F618140E0BF
:1001400080810E94D1000895FC01EE0FFF1F8E0FE9
:100150009F1FFC01E05AFF4F618141E080810E94B6
:10016000D100089585E0089586E0089587E0089518
:100170000E944900C0E012C060E08C2F0E94630022
:100180002FEF89E698E1215080409040E1F700C0D0
:10019000000061E08C2F0E946300CF5FC43060F3E9
:1001A000E9CF853060F5693060F5423060F590E068
:1001B000FC01EE0FFF1F8E0F9F1FEE27FF27E81B8E
:1001C000F90BF99641110DC0228181E090E002C047
:1001D000880F991F6A95E2F780958223828380E0D9
:1001E0000895413091F4228181E090E002C0880FAF
:1001F000991F6A95E2F7822B828380E0089582E05E
:10020000089583E0089584E0089580E00895282FFC
:1002100022952F708F702430A0F58830A0F56230C1
:10022000A0F530E0F901EE0FFF1F2E0F3F1FEE2764
:10023000FF27E21BF30BF99661110EC0418121E00B
:1002400030E0B90102C0660F771F8A95E2F7CB0153
:10025000842B818380E008956130C9F4418121E0DD
:1002600030E0B90102C0660F771F8A95E2F7CB0133
:100270008095942F9823918392818923828380E0B3
:10028000089582E0089583E0089584E0089580E071
:060290000895F894FFCF71
:0C02960000000000010000020000030056
:00000001FF
