:100000000C942A000C9447000C9447000C94470071
:100010000C9447000C9447000C9447000C94470044
:100020000C9447000C9447000C9447000C94470034
:100030000C9447000C9447000C9447000C94470024
:100040000C946E000C9447000C9447000C944700ED
:100050000C94470011241FBECFE5D8E0DEBFCDBF12
:1000600010E0A0E6B0E0E6EBFCE002C005900D92E7
:10007000A63DB107D9F720E0A6EDB0E001C01D9282
:10008000A83DB207E1F70E94CA040C9459060C94EB
:10009000000087B18F7387B987B1806487B987B152
:1000A0008F7D87B986B1887F86B986B1876086B92A
:1000B00086B1806886B9089597B1907E97B997B157
:1000C000892B87B986B1806486B90895349BFECFA9
:1000D00086B1806186B984B195B108951F920F925F
:1000E0000FB60F9211242F933F934F935F936F930B
:1000F0007F938F939F93AF93BF93EF93FF93E09181
:10010000D600F091D700309709F00995FF91EF9153
:10011000BF91AF919F918F917F916F915F914F911F
:100120003F912F910F900FBE0F901F901895FF9247
:100130000F931F93CF93DF93833008F0D8C0F62E30
:10014000C82FD0E08EE18C9F80018D9F100D11246F
:10015000005A1F4FF801638D40E0828D0E944B05CD
:10016000F801618D40E0808D0E944B05F80180818F
:10017000813009F041C08F0161854F2D417080852C
:100180000E944B05F8016385F1FA442740F9828506
:100190000E944B05F8016585F2FA442740F98485F1
:1001A0000E944B05F8016785F3FA442740F98685DC
:1001B0000E944B05F8016189F4FA442740F98089CF
:1001C0000E944B05F8016389F5FA442740F98289BA
:1001D0000E944B05F8016589F6FA442740F98489A5
:1001E0000E944B05F80167894F2D441F4427441F87
:1001F00086890E944B055EC081115CC08EE18C9F98
:1002000080018D9F100D1124005A1F4FF801618944
:10021000F4FA442740F980890E944B05F80163896C
:10022000F5FA442740F982890E944B05F801658957
:10023000F6FA442740F984890E944B05F801678942
:100240004F2D441F4427441F86890E944B05F80107
:10025000658D41E0848D0E944B05F2E0FA95F1F73F
:1002600000C0F801658D40E0848D0E944B05F2E0EE
:10027000FA95F1F700C0F80161894F2D417080892E
:100280000E944B05F8016389F1FA442740F98289FD
:100290000E944B05F8016589F2FA442740F98489E8
:1002A0000E944B05F8016789F3FA442740F98689D3
:1002B0000E944B052EE12C9FC0012D9F900D112413
:1002C000EC01C05ADF4F6D8D41E08C8D0E944B05D3
:1002D000F2E0FA95F1F700C06D8D40E08C8D0E9440
:1002E0004B0582E08A95F1F700C081E001C082E011
:1002F000DF91CF911F910F91FF90089561E00E94CF
:10030000970008950F931F93CF93DF93C0E0D0E041
:1003100050C12FEB8AED90E0215080409040E1F7F2
:1003200000C000008EE18C9FF0018D9FF00D112424
:10033000E05AFF4F8081813009F070C08F019085B5
:10034000818560E0F0E19F9F800D11240E94E60509
:10035000F8019285838560E0F0E19F9F800D112474
:100360000E94E605F8019485858560E0F0E19F9F95
:10037000800D11240E94E605F8019685878560E0CE
:10038000F0E19F9F800D11240E94E605F8019089FD
:10039000818960E0F0E19F9F800D11240E94E605B5
:1003A000F8019289838960E0F0E19F9F800D11241C
:1003B0000E94E605F8019489858960E0F0E19F9F3D
:1003C000800D11240E94E605F8019689878960E076
:1003D000F0E19F9F800D11240E94E605F801908DA9
:1003E000818D60E0F0E19F9F800D11240E94E60561
:1003F000F801928D838D60E0F0E19F9F800D1124C4
:100400000E94E605F801948D858D60E0F0E19F9FE4
:10041000800D11240E94E60560E357C0811154C08D
:100420008EE18C9F80018D9F100D1124005A1F4F6B
:10043000F8019089818960E0F0E19F9F800D11248F
:100440000E94E605F8019289838960E0F0E19F9FB0
:10045000800D11240E94E605F8019489858960E0E9
:10046000F0E19F9F800D11240E94E605F801968916
:10047000878960E0F0E19F9F800D11240E94E605CE
:10048000F801908D818D60E0F0E19F9F800D112437
:100490000E94E605F801928D838D60E0F0E19F9F58
:1004A000800D11240E94E605F801948D858D60E091
:1004B000F0E19F9F800D11240E94E60562E08C2FE1
:1004C0000E94970060E201C060E28EE18C9FF00123
:1004D0008D9FF00D1124E05AFF4F8181813009F486
:1004E00068608EE18C9FF0018D9FF00D1124E05A21
:1004F000FF4F8281813009F464601C2F8C2F0E9491
:10050000970025E82A95F1F700008EE18C9FF00115
:100510008D9FF00D1124E05AFF4F8381813011F03F
:1005200068E001C06CE08EE18C9FF0018D9FF00DC2
:100530001124E05AFF4F8481813009F462608EE11A
:100540008C9FF0018D9FF00D1124E05AFF4F8581A3
:10055000813009F46160812F0E94970085E88A95B7
:10056000F1F70000812F0E947E01EFE9FFE0319753
:10057000F1F700C000008EE18C9FF0018D9FF00D1F
:100580001124E05AFF4F8681813011F064E001C0F0
:1005900066E08EE18C9FF0018D9FF00D1124E05AF2
:1005A000FF4F8781813009F46160812F0E9497009D
:1005B0002196C230D1050CF4ACCEDF91CF911F91C2
:1005C0000F910895FF920F931F93CF93DF93833082
:1005D00008F0D8C0F62EC82FD0E08EE18C9F8001A5
:1005E0008D9F100D1124005A1F4FF801638D40E0BC
:1005F000828D0E944B05F801618D41E0808D0E9443
:100600004B05F8018081813009F041C08F0161857F
:100610004F2D417080850E944B05F8016385F1FAEA
:10062000442740F982850E944B05F8016585F2FA5E
:10063000442740F984850E944B05F8016785F3FA49
:10064000442740F986850E944B05F8016189F4FA38
:10065000442740F980890E944B05F8016389F5FA27
:10066000442740F982890E944B05F8016589F6FA12
:10067000442740F984890E944B05F80167894F2D72
:10068000441F4427441F86890E944B055EC0811188
:100690005CC08EE18C9F80018D9F100D1124005A4B
:1006A0001F4FF8016189F4FA442740F980890E94BC
:1006B0004B05F8016389F5FA442740F982890E94C5
:1006C0004B05F8016589F6FA442740F984890E94B0
:1006D0004B05F80167894F2D441F4427441F868925
:1006E0000E944B05F801658D41E0848D0E944B0509
:1006F000F2E0FA95F1F700C0F801658D40E0848DD5
:100700000E944B05F2E0FA95F1F700C0F80161890B
:100710004F2D417080890E944B05F8016389F1FAE1
:10072000442740F982890E944B05F8016589F2FA55
:10073000442740F984890E944B05F8016789F3FA40
:10074000442740F986890E944B052EE12C9FC00169
:100750002D9F900D1124EC01C05ADF4F6D8D41E0AB
:100760008C8D0E944B05F2E0FA95F1F700C06D8D7B
:1007700040E08C8D0E944B0582E08A95F1F700C025
:1007800081E001C082E0DF91CF911F910F91FF9036
:100790000895833090F4403190F4623090F4EFE9A2
:1007A000FFE03197F1F700C000006111405C60E8A4
:1007B000640F0E94970081E0089582E0089584E02C
:1007C000089583E008951F93CF93DF93182FEB01D3
:1007D000833060F4209729F40BC0812F0E94E2023D
:1007E000219668816111F9CF81E003C082E001C0E8
:1007F00086E0DF91CF911F9108950F931F93CF93C0
:10080000DF93CDB7DEB72A970FB6F894DEBF0FBEE1
:10081000CDBF082FCB01BA010330C8F561157105B2
:1008200081059105C9F460E3802F0E94E20281E016
:100830002FC02AE030E040E050E00E942806E1E0CE
:10084000F0E0EC0FFD1FE10FF11D6083622F732FAD
:10085000842F952F1F5F01C010E061157105810580
:10086000910539F71B3088F40CC01150E1E0F0E03D
:10087000EC0FFD1FE10FF11D6081605D802F0E9474
:10088000E2021111F2CF81E003C088E001C082E0F2
:100890002A960FB6F894DEBF0FBECDBFDF91CF9181
:1008A0001F910F910895CF93C0E013C0EC2FF0E09B
:1008B000CF01880F991FE80FF91FE456FF4F908171
:1008C000818160E020E1929F800D11240E94E60565
:1008D000CF5FC33058F3CF910895843008F050C0F3
:1008E000623008F04FC090E0FC01EE0FFF1FE80FF0
:1008F000F91FE456FF4F2281211120C061110EC063
:10090000FC01EE0FFF1F8E0F9F1FFC01E456FF4FEF
:10091000618141E080810E944B0508956130A1F51D
:10092000FC01EE0FFF1F8E0F9F1FFC01E456FF4FCF
:10093000618140E080810E944B050895213031F5AE
:1009400061110EC0FC01EE0FFF1F8E0F9F1FFC01F7
:10095000E456FF4F618140E080810E944B0508957D
:100960006130B1F4FC01EE0FFF1F8E0F9F1FFC01E1
:10097000E456FF4F618141E080810E944B0508955C
:1009800085E0089586E0089580E0089587E0089561
:1009900080E008950E9453040E94D1050E944900FE
:1009A0000E94820180E00E947E0180E00E945C0043
:1009B00080E00E9466006C0181E00E945C0081E0A2
:1009C0000E9466007C019601A8E8B3E10E944A06F5
:1009D00020E038E240E050E00E94280649015A0138
:1009E0009701A8E8B3E10E944A066B017C010B2E37
:1009F000BAE0F694E794D794C794BA95D1F7B02D9E
:100A000065EC70E080E00E94E303B501A40180E0A2
:100A10000E94FD0363E480E00E94E20240E061E0A6
:100A200080E00E94C9036CEC70E080E00E94E30368
:100A3000B701A60180E00E94FD0362ED70E080E056
:100A40000E94E30324E182169104A104B10428F476
:100A500060E080E00E946D0404C061E080E00E94DC
:100A60006D048CEBC81682E0D806E104F10428F48A
:100A700060E081E00E946D0404C061E081E00E94BA
:100A80006D049FE32DE083E0915020408040E1F72A
:100A900000C0000087CF853060F5693060F54230D6
:100AA00060F590E0FC01EE0FFF1F8E0F9F1FEE27F9
:100AB000FF27E81BF90BF99641110DC0228181E057
:100AC00090E002C0880F991F6A95E2F78095822313
:100AD000828380E00895413091F4228181E090E0AA
:100AE00002C0880F991F6A95E2F7822B828380E00B
:100AF000089582E0089583E0089584E0089580E0F9
:100B00000895843008F045C0683008F044C0433090
:100B100008F043C090E0FC01EE0FFF1F8E0F9F1FF7
:100B2000EE27FF27E81BF90BF99641110CC0218134
:100B300081E090E002C0880F991F6A95E2F7822B4E
:100B4000818380E00895413089F4218181E090E043
:100B500002C0880F991F6A95E2F7982F909592230B
:100B600091839281892B828380E008954230B9F489
:100B7000218181E090E002C0880F991F6A95E2F719
:100B80008095922F9823918392818923828380E09C
:100B9000089582E0089583E0089586E0089580E056
:100BA0000895CF93C0E00EC06C2F6770EC2FF0E07B
:100BB000EB55FF4F40818C2F8695869586950E9438
:100BC0008105CF5FC03280F3CF910895282F229501
:100BD0002F708F702430A0F58830A0F56230A0F51A
:100BE00030E0F901EE0FFF1F2E0F3F1FEE27FF270A
:100BF000E21BF30BF99661110EC0418121E030E058
:100C0000B90102C0660F771F8A95E2F7CB01842BEA
:100C1000818380E008956130C9F4418121E030E0B2
:100C2000B90102C0660F771F8A95E2F7CB01809564
:100C3000942F9823918392818923828380E0089561
:100C400082E0089583E0089584E0089580E00895A7
:100C5000A1E21A2EAA1BBB1BFD010DC0AA1FBB1FC0
:100C6000EE1FFF1FA217B307E407F50720F0A21B32
:100C7000B30BE40BF50B661F771F881F991F1A949F
:100C800069F760957095809590959B01AC01BD01C9
:100C9000CF010895A29FB001B39FC001A39F700D23
:100CA000811D1124911DB29F700D811D1124911D74
:060CB0000895F894FFCF47
:100CB6000001000101010100000000000000000029
:100CC60002040205020602070104010501060000EE
:100CD600000000000000000000000000000000000E
:100CE60000000000000000000000000001000001FC
:100CF60001000000000202000000000000000000E9
:100D060000000000000000000000000000000000DD
:100D160000000000002054656D703D00204C4452D8
:060D26003D006D560000C7
:00000001FF
