:100000000C942A000C943F000C943F000C943F0089
:100010000C943F000C943F000C943F000C943F0064
:100020000C943F000C943F000C943F000C943F0054
:100030000C943F000C943F000C943F000C943F0044
:100040000C943F000C943F000C943F000C943F0034
:100050000C943F0011241FBECFE5D8E0DEBFCDBF1A
:1000600010E0A0E6B0E0ECEFF3E002C005900D92E6
:10007000A638B107D9F70E9487000C94FC010C94B4
:1000800000000F931F93CF93DF9310E022C0C12F86
:10009000D0E0CE01880F991FC80FD91FC05ADF4F7B
:1000A0008881098190E1899F000D112461E0802FF2
:1000B0000E9473018A81811105C060E0802F0E9437
:1000C000B50106C0813021F461E0802F0E94B501A6
:1000D0001F5F1230E0F2DF91CF911F910F910895D1
:1000E000833088F46115710581F0AB0190E0FC016B
:1000F000EE0FFF1FE80FF91FE05AFF4F618180816B
:100100000E94EB00089585E0089586E00895CF935E
:10011000DF9300D0CDB7DEB70E945E010E944100A0
:10012000BE016F5F7F4F80E00E947000BE016E5F76
:100130007F4F81E00E9470008981811109C041E0F8
:1001400060E00E94B50040E061E080E00E94B50000
:100150008A818111E5CF41E061E00E94B50040E075
:1001600060E080E00E94B500DBCF853060F569304B
:1001700060F5423060F590E0FC01EE0FFF1F8E0F3E
:100180009F1FEE27FF27E81BF90BF99641110DC0C1
:10019000228181E090E002C0880F991F6A95E2F702
:1001A00080958223828380E00895413091F42281FA
:1001B00081E090E002C0880F991F6A95E2F7822BD8
:1001C000828380E0089582E0089583E0089584E0CA
:1001D000089580E008958530D8F46930D8F4411549
:1001E0005105D1F090E0FC01EE0FFF1F8E0F9F1F15
:1001F000EE27FF27E81BF90B81AD90E002C0959533
:1002000087956A95E2F78170FA01808380E008950E
:1002100082E0089583E0089586E00895843008F030
:1002200045C0683008F044C0433008F043C090E057
:10023000FC01EE0FFF1F8E0F9F1FEE27FF27E81B0D
:10024000F90BF99641110CC0218181E090E002C0C8
:10025000880F991F6A95E2F7822B818380E00895C9
:10026000413089F4218181E090E002C0880F991F1C
:100270006A95E2F7982F9095922391839281892B2A
:10028000828380E008954230B9F4218181E090E0DA
:1002900002C0880F991F6A95E2F78095922F9823E4
:1002A000918392818923828380E0089582E008957A
:1002B00083E0089586E0089580E00895CF93C0E03C
:1002C0000EC06C2F6770EC2FF0E0EA59FF4F4081B1
:1002D0008C2F8695869586950E940E01CF5FC03241
:1002E00080F3CF910895282F22952F708F7024309E
:1002F000A0F58830A0F56230A0F530E0F901EE0FEE
:10030000FF1F2E0F3F1FEE27FF27E21BF30BF9966F
:1003100061110EC0418121E030E0B90102C0660FD9
:10032000771F8A95E2F7CB01842B818380E00895C3
:100330006130C9F4418121E030E0B90102C0660FAB
:10034000771F8A95E2F7CB018095942F98239183AC
:1003500092818923828380E0089582E0089583E07A
:10036000089584E0089580E00895282F22952F7045
:100370008F702430C8F58830C8F56330C8F530E098
:10038000F901EE0FFF1F2E0F3F1FEE27FF27E21B85
:10039000F30BF996611113C0418121E030E0B901FE
:1003A00002C0660F771F8A95E2F7CB01962F9095D2
:1003B000942391839281892B828380E00895613018
:1003C000C9F4418121E030E0B90102C0660F771F16
:1003D0008A95E2F7CB018095942F9823918392819F
:1003E0008923828380E0089582E0089583E0089560
:0C03F00085E0089580E00895F894FFCFA8
:1003FC0001000001010000000000000000000101EC
:10040C0000000000000000000000000000000000E0
:06041C00000000000000DA
:00000001FF
