S01700005744545F4472697665724275696C642E7372656363
S11300000C942A000C943F000C943F000C943F0085
S11300100C943F000C943F000C943F000C943F0060
S11300200C943F000C943F000C943F000C943F0050
S11300300C943F000C943F000C943F000C943F0040
S11300400C943F000C943F000C943F000C943F0030
S11300500C943F0011241FBECFE5D8E0DEBFCDBF16
S113006010E0A0E6B0E0E8EBF2E002C005900D92EB
S1130070A636B107D9F70E94B8000C945A010C9423
S11300800000CF93C0E013C0EC2FF0E0CF01880F45
S1130090991FE80FF91FE05AFF4F9081818160E0BA
S11300A020E1929F800D11240E940901CF5FC2308C
S11300B058F3CF910895833008F050C0623008F0AF
S11300C04FC090E0FC01EE0FFF1FE80FF91FE05A4C
S11300D0FF4F2281211120C061110EC0FC01EE0FDF
S11300E0FF1F8E0F9F1FFC01E05AFF4F618141E00B
S11300F080810E94D30008956130A1F5FC01EE0FC8
S1130100FF1F8E0F9F1FFC01E05AFF4F618140E0EB
S113011080810E94D3000895213031F561110EC011
S1130120FC01EE0FFF1F8E0F9F1FFC01E05AFF4FD3
S1130130618140E080810E94D30008956130B1F470
S1130140FC01EE0FFF1F8E0F9F1FFC01E05AFF4FB3
S1130150618141E080810E94D300089585E0089583
S113016086E0089580E0089587E0089580E008958A
S11301700E94410060E080E00E945B002FE38DE07C
S113018093E0215080409040E1F700C0000061E01E
S113019080E00E945B0087E00E9454010E944B01B2
S11301A00E944F01FFCF853060F5693060F5423021
S11301B060F590E0FC01EE0FFF1F8E0F9F1FEE27EE
S11301C0FF27E81BF90BF99641110DC0228181E04C
S11301D090E002C0880F991F6A95E2F78095822308
S11301E0828380E00895413091F4228181E090E09F
S11301F002C0880F991F6A95E2F7822B828380E000
S1130200089582E0089583E0089584E0089580E0ED
S11302100895282F22952F708F702430A0F58830F0
S1130220A0F56230A0F530E0F901EE0FFF1F2E0FAC
S11302303F1FEE27FF27E21BF30BF99661110EC057
S1130240418121E030E0B90102C0660F771F8A9531
S1130250E2F7CB01842B818380E008956130C9F4F7
S1130260418121E030E0B90102C0660F771F8A9511
S1130270E2F7CB018095942F98239183928189236F
S1130280828380E0089582E0089583E0089584E005
S1130290089580E0089581B5886081BD089581B591
S11302A0886181BD11BC089591B5987F8770892BB1
S10B02B081BD0895F894FFCF0D
S10902B80000000001013A
S9030000FC
