S01A000054696D6572305F4472697665724275696C642E737265631E
S11300000C942A000C9447000C9447000C9447006D
S11300100C9447000C9447000C9447000C94470040
S11300200C9447000C9447000C9439010C94F9008B
S11300300C9447000C9447000C9447000C94470020
S11300400C9447000C9447000C9447000C94470010
S11300500C94470011241FBECFE5D8E0DEBFCDBF0E
S113006010E0A0E6B0E0E0E4F3E002C005900D92F9
S1130070A436B107D9F720E0A4E6B0E001C01D9290
S1130080AF36B207E1F70E944D000C949E010C9428
S113009000008FB780688FBF08950E94B400C0E04D
S11300A00DC08C2F0E94EA002FE986E891E02150D0
S11300B080409040E1F700C00000C65FC53688F379
S11300C0C4E60DC08C2F0E94EA002FE986E891E077
S11300D0215080409040E1F700C00000CA50C11197
S11300E0F1CFDDCF282F22952F708F702430A0F50B
S11300F08830A0F56230A0F530E0F901EE0FFF1F63
S11301002E0F3F1FEE27FF27E21BF30BF996611119
S11301100EC0418121E030E0B90102C0660F771FB3
S11301208A95E2F7CB01842B818380E008956130C6
S1130130C9F4418121E030E0B90102C0660F771FA4
S11301408A95E2F7CB018095942F9823918392812D
S11301508923828380E0089582E0089583E00895EE
S113016084E0089580E0089583B7877B83BF93B7C5
S1130170E0E6F0E08081892B83BF83B78F7C83BF67
S113018093B78281892B83BF8081811109C089B78C
S1130190816089BF80916C0082BF0E94490011C0B8
S11301A0883039F489B7826089BF1CBE0E94490037
S11301B008C0803411F0883421F460E083E10E94A7
S11301C0720083B7887F83BF93B780916100892BC6
S11301D083BF0895853658F42FEF829FC001112400
S11301E064E670E00E9476016CBF80E0089583E0CD
S11301F008951F920F920FB60F9211242F933F93DD
S11302004F935F936F937F938F939F93AF93BF931A
S1130210EF93FF938091660090916700019690930D
S113022067008093660020916A0030916B0082170A
S1130230930771F4109267001092660080916C002D
S113024082BFE0916D00F0916E00309709F009953E
S1130250FF91EF91BF91AF919F918F917F916F919A
S11302605F914F913F912F910F900FBE0F901F9070
S113027018951F920F920FB60F9211242F933F934C
S11302804F935F936F937F938F939F93AF93BF939A
S1130290EF93FF9380916400909165000196909391
S11302A06500809364002091680030916900821792
S11302B0930759F41092650010926400E0916D0068
S11302C0F0916E00309709F00995FF91EF91BF917D
S11302D0AF919F918F917F916F915F914F913F91DA
S11302E02F910F900FBE0F901F90189597FB072E1C
S11302F016F4009407D077FD09D00E948A0107FC08
S113030005D03EF4909581959F4F08957095619521
S11303107F4F0895AA1BBB1B51E107C0AA1FBB1F37
S1130320A617B70710F0A61BB70B881F991F5A957D
S1130330A9F780959095BC01CD010895F894FFCF5D
S1070340480320004A
S9030000FC
