S01800004C45445F4452495645525F4255494C442E737265633D
S11300000C942A000C9447000C9447000C9447006D
S11300100C9447000C9447000C9447000C94470040
S11300200C9447000C9447000C9447000C94470030
S11300300C9447000C9447000C9447000C94470020
S11300400C9447000C9447000C9447000C94470010
S11300500C94470011241FBECFE5D8E0DEBFCDBF0E
S113006010E0A0E6B0E0EAE7F2E002C005900D92ED
S1130070A636B107D9F720E0A6E6B0E001C01D928C
S1130080A636B207E1F70E94B8000C943B010C9429
S11300900000CF93C0E013C0EC2FF0E0CF01880F35
S11300A0991FE80FF91FE05AFF4F9081818160E0AA
S11300B020E1929F800D11240E94F900CF5FC2308D
S11300C058F3CF910895833008F04CC0623008F0A3
S11300D04BC090E0FC01EE0FFF1FE80FF91FE05A40
S11300E0FF4F228121111EC061110EC0FC01EE0FD1
S11300F0FF1F8E0F9F1FFC01E05AFF4F618141E0FB
S113010080810E94C3000895FC01EE0FFF1F8E0F33
S11301109F1FFC01E05AFF4F618140E080810E94F3
S1130120C3000895213011F561110EC0FC01EE0FDA
S1130130FF1F8E0F9F1FFC01E05AFF4F618140E0BB
S113014080810E94C3000895FC01EE0FFF1F8E0FF3
S11301509F1FFC01E05AFF4F618141E080810E94B2
S1130160C300089585E0089586E0089587E0089522
S11301700E94490060E080E00E94630060E081E04A
S11301800E946300F7CF853060F5693060F5423036
S113019060F590E0FC01EE0FFF1F8E0F9F1FEE270E
S11301A0FF27E81BF90BF99641110DC0228181E06C
S11301B090E002C0880F991F6A95E2F78095822328
S11301C0828380E00895413091F4228181E090E0BF
S11301D002C0880F991F6A95E2F7822B828380E020
S11301E0089582E0089583E0089584E0089580E00E
S11301F00895282F22952F708F702430A0F5883011
S1130200A0F56230A0F530E0F901EE0FFF1F2E0FCC
S11302103F1FEE27FF27E21BF30BF99661110EC077
S1130220418121E030E0B90102C0660F771F8A9551
S1130230E2F7CB01842B818380E008956130C9F417
S1130240418121E030E0B90102C0660F771F8A9531
S1130250E2F7CB018095942F98239183928189238F
S1130260828380E0089582E0089583E0089584E025
S10D0270089580E00895F894FFCF8C
S109027A00000000010178
S9030000FC
