S02100004C6162325F62696E617279436F756E7465727769746844494F2E7372656366
S11300000C942A000C9434000C9434000C943400A6
S11300100C9434000C9434000C9434000C9434008C
S11300200C9434000C9434000C9434000C9434007C
S11300300C9434000C9434000C9434000C9434006C
S11300400C9434000C9434000C9434000C9434005C
S11300500C94340011241FBECFE5D8E0DEBFCDBF21
S11300600E9436000C94E6020C940000CF93DF93B8
S11300701F92CDB7DEB76FEF80E00E949201182F78
S113008041E067E082E00E949C00082F81E08983C0
S113009060E080E00E949902D12C1111FECF011181
S11300A0FCCFAE014F5F5F4F67E082E00E949F028A
S11300B08111F3CF89818111F0CF2FE788E391E09B
S11300C0215080409040E1F700C00000AE014F5F36
S11300D05F4F67E082E00E949F0289818111DDCF3A
S11300E0D394E12CF12C10C04D2D50E00E2C02C005
S11300F0559547950A94E2F741706E2D80E00E9471
S113010000022FEFE21AF20A88E0E816F10464F321
S1130110AE014F5F5F4F67E082E00E949F028981DA
S11301208823B1F39FE728E381E091502040804089
S1130130E1F700C00000B1CF843008F0E3C06830BC
S113014008F0E2C0433008F0E1C08130E9F138F052
S1130150823009F46EC0833009F4A0C0D9C04111C3
S11301600CC02AB381E090E002C0880F991F6A9501
S1130170E2F7822B8ABB80E00895413089F42AB3E8
S113018081E090E002C0880F991F6A95E2F7982FEA
S1130190909592239ABB9BB3892B8BBB80E00895E7
S11301A0423009F0B7C02AB381E090E002C0880F62
S11301B0991F6A95E2F78095922F98239ABB9BB377
S11301C089238BBB80E0089541110CC027B381E0E3
S11301D090E002C0880F991F6A95E2F7822B87BBD3
S11301E080E00895413089F427B381E090E002C0B3
S11301F0880F991F6A95E2F7982F9095922397BBE1
S113020098B3892B88BB80E00895423009F084C0FC
S113021027B381E090E002C0880F991F6A95E2F746
S11302208095922F982397BB98B3892388BB80E04D
S1130230089541110CC024B381E090E002C0880FFE
S1130240991F6A95E2F7822B84BB80E008954130C0
S113025089F424B381E090E002C0880F991F6A9565
S1130260E2F7982F9095922394BB95B3892B85BB85
S113027080E00895423009F051C024B381E090E059
S113028002C0880F991F6A95E2F78095922F9823F0
S113029094BB95B3892385BB80E0089541110CC0BC
S11302A021B381E090E002C0880F991F6A95E2F7BC
S11302B0822B81BB80E00895413089F421B381E031
S11302C090E002C0880F991F6A95E2F7982F9095E5
S11302D0922391BB92B3892B82BB80E00895423074
S11302E0F9F421B381E090E002C0880F991F6A9568
S11302F0E2F78095922F982391BB92B3892382BB16
S113030080E0089582E0089583E0089584E00895EC
S113031080E0089580E0089580E0089580E00895E5
S113032080E00895843008F05DC09FEF960F9E3FF3
S113033008F45AC08130D1F028F0823059F183306A
S1130340E9F154C06F3F29F48FEF8ABB1BBA80E0F8
S11303500895611105C01ABA8FEF8BBB80E0089530
S1130360611146C01ABA1BBA80E008956F3F29F4A0
S11303708FEF87BB18BA80E00895611105C017BAE2
S11303808FEF88BB80E00895611134C017BA18BAA2
S113039080E008956F3F29F48FEF84BB15BA80E0A5
S11303A00895611105C014BA8FEF85BB80E00895EC
S11303B0611122C014BA15BA80E008956F3F29F480
S11303C08FEF81BB12BA80E00895611105C011BAA4
S11303D08FEF82BB80E00895611110C011BA12BA88
S11303E080E0089582E0089584E0089580E008950F
S11303F080E0089580E0089580E0089580E0089505
S1130400843008F086C0683008F085C0423008F0B7
S113041084C0813031F138F0823009F440C0833037
S113042009F45AC07CC041110DC02BB381E090E0A7
S113043002C0880F991F6A95E2F7809582238BBBCF
S113044080E00895413009F06CC02BB381E090E066
S113045002C0880F991F6A95E2F7822B8BBB80E05C
S1130460089541110DC028B381E090E002C0880FC7
S1130470991F6A95E2F78095822388BB80E00895EE
S1130480413009F050C028B381E090E002C0880FE9
S1130490991F6A95E2F7822B88BB80E00895411189
S11304A00DC025B381E090E002C0880F991F6A95C2
S11304B0E2F78095822385BB80E008954130A9F559
S11304C025B381E090E002C0880F991F6A95E2F796
S11304D0822B85BB80E0089541110DC022B381E0D9
S11304E090E002C0880F991F6A95E2F780958223F5
S11304F082BB80E008954130D1F422B381E090E0E2
S113050002C0880F991F6A95E2F7822B82BB80E0B4
S1130510089582E0089583E0089585E0089580E0D9
S1130520089580E0089580E0089580E0089580E0D3
S11305300895843010F082E0089586E008958430B0
S1130540E8F56830E8F541155105E1F1813091F0A5
S113055028F08230D9F0833029F136C089B390E095
S113056002C0959587956A95E2F78170FA018083B8
S113057080E0089586B390E002C0959587956A95CA
S1130580E2F78170FA01808380E0089583B390E0FC
S113059002C0959587956A95E2F78170FA01808388
S11305A080E0089580B390E002C0959587956A95A0
S11305B0E2F78170FA01808380E0089582E0089573
S11305C083E0089587E0089580E00895F894FFCFCC
S9030000FC
