S00E00004144434C44522E737265636C
S11300000C942A000C9447000C9447000C9447006D
S11300100C9447000C9447000C9447000C94470040
S11300200C9447000C9447000C9447000C94470030
S11300300C9447000C9447000C9447000C94470020
S11300400C9472000C9447000C9447000C944700E5
S11300500C94470011241FBECFE5D8E0DEBFCDBF0E
S113006010E0A0E6B0E0E6E8F4E002C005900D92EE
S1130070AA38B107D9F720E0AAE8B0E001C01D9280
S1130080A239B207E1F70E9443010C9441020C9497
S1130090000087B18F7387B987B1806487B987B14E
S11300A08F7D87B986B1887F86B986B1876086B926
S11300B086B1806886B9089597B1907E97B997B153
S11300C0892B87B986B1806486B9089586B1886022
S11300D086B9089590938B0080938A00089584B123
S11300E095B108951F920F920FB60F9211242F937A
S11300F03F934F935F936F937F938F939F93AF93AC
S1130100BF93EF93FF93E0918A00F0918B003097B7
S113011009F00995FF91EF91BF91AF919F918F9154
S11301207F916F915F914F913F912F910F900FBEEF
S11301300F901F9018958FB780688FBF0895CF9345
S1130140C0E013C0EC2FF0E0CF01880F991FE80F37
S1130150F91FE05AFF4F9081818160E020E1929F76
S1130160800D11240E94F001CF5FC33058F3CF916A
S11301700895843008F050C0623008F04FC090E019
S1130180FC01EE0FFF1FE80FF91FE05AFF4F228119
S1130190211120C061110EC0FC01EE0FFF1F8E0F54
S11301A09F1FFC01E05AFF4F618141E080810E9462
S11301B0550108956130A1F5FC01EE0FFF1F8E0F6C
S11301C09F1FFC01E05AFF4F618140E080810E9443
S11301D055010895213031F561110EC0FC01EE0F77
S11301E0FF1F8E0F9F1FFC01E05AFF4F618140E00B
S11301F080810E94550108956130B1F4FC01EE0F35
S1130200FF1F8E0F9F1FFC01E05AFF4F618141E0E9
S113021080810E945501089585E0089586E008953F
S113022080E0089587E0089580E008950E946F00BB
S113023090939100809390009C01A8E8B3E10E9400
S11302403202DC01CB01072E7AE0B695A79597958B
S113025087957A95D1F7702D80938C0090938D00BB
S1130260A0938E00B0938F008C3B9240A105B10502
S113027028F460E080E00E94B900089561E080E025
S11302800E94B90008950E949F000E94DB010E9411
S113029049000E949B000E94660086E191E00E9452
S11302A06A0080E00E945C00FCCF853060F5693014
S11302B060F5423060F590E0FC01EE0FFF1F8E0FF9
S11302C09F1FEE27FF27E81BF90BF99641110DC07C
S11302D0228181E090E002C0880F991F6A95E2F7BD
S11302E080958223828380E00895413091F42281B5
S11302F081E090E002C0880F991F6A95E2F7822B93
S1130300828380E0089582E0089583E0089584E084
S1130310089580E00895843008F045C0683008F0FE
S113032044C0433008F043C090E0FC01EE0FFF1FCF
S11303308E0F9F1FEE27FF27E81BF90BF99641113B
S11303400CC0218181E090E002C0880F991F6A955A
S1130350E2F7822B818380E00895413089F4218182
S113036081E090E002C0880F991F6A95E2F7982F08
S11303709095922391839281892B828380E00895C2
S11303804230B9F4218181E090E002C0880F991FC6
S11303906A95E2F78095922F98239183928189231D
S11303A0828380E0089582E0089583E0089586E0E2
S11303B0089580E00895CF93C0E00EC06C2F67705D
S11303C0EC2FF0E0E759FF4F40818C2F86958695FE
S11303D086950E948B01CF5FC03280F3CF91089540
S11303E0282F22952F708F702430A0F58830A0F527
S11303F06230A0F530E0F901EE0FFF1F2E0F3F1F12
S1130400EE27FF27E21BF30BF99661110EC0418121
S113041021E030E0B90102C0660F771F8A95E2F748
S1130420CB01842B818380E008956130C9F441813C
S113043021E030E0B90102C0660F771F8A95E2F728
S1130440CB018095942F9823918392818923828371
S113045080E0089582E0089583E0089584E008959B
S113046080E00895A29FB001B39FC001A39F700DC7
S1130470811D1124911DB29F700D811D1124911DA8
S10904800895F894FFCF7B
S1130486010000010100010200020000000000005A
S11304960000000000000000000000000000000052
S10D04A60000000000000000000048
S9030000FC
