S01700004C43445F6472697665724275696C642E737265635F
S11300000C942A000C9447000C9447000C9447006D
S11300100C9447000C9447000C9447000C94470040
S11300200C9447000C9447000C9447000C94470030
S11300300C9447000C9447000C9447000C94470020
S11300400C9447000C9447000C9447000C94470010
S11300500C94470011241FBECFE5D8E0DEBFCDBF0E
S113006010E0A0E6B0E0E4E7FBE002C005900D92EA
S1130070A83AB107D9F720E0A8EAB0E001C01D9280
S1130080A83AB207E1F70E9478040C94B8050C94DE
S11300900000FF920F931F93CF93DF93833008F0F8
S11300A0D8C0F62EC82FD0E08EE18C9F80018D9FA2
S11300B0100D1124005A1F4FF801638D40E0828D0A
S11300C00E941E05F801618D40E0808D0E941E058E
S11300D0F8018081813009F041C08F0161854F2D85
S11300E0417080850E941E05F8016385F1FA44275A
S11300F040F982850E941E05F8016585F2FA4427BD
S113010040F984850E941E05F8016785F3FA4427A7
S113011040F986850E941E05F8016189F4FA442796
S113012040F980890E941E05F8016389F5FA442785
S113013040F982890E941E05F8016589F6FA442770
S113014040F984890E941E05F80167894F2D441FD8
S11301504427441F86890E941E055EC081115CC02D
S11301608EE18C9F80018D9F100D1124005A1F4F2A
S1130170F8016189F4FA442740F980890E941E0538
S1130180F8016389F5FA442740F982890E941E0523
S1130190F8016589F6FA442740F984890E941E050E
S11301A0F80167894F2D441F4427441F86890E9404
S11301B01E05F801658D41E0848D0E941E05F2E064
S11301C0FA95F1F700C0F801658D40E0848D0E9436
S11301D01E05F2E0FA95F1F700C0F80161894F2D90
S11301E0417080890E941E05F8016389F1FA442751
S11301F040F982890E941E05F8016589F2FA4427B4
S113020040F984890E941E05F8016789F3FA44279E
S113021040F986890E941E052EE12C9FC0012D9F66
S1130220900D1124EC01C05ADF4F6D8D41E08C8D8F
S11302300E941E05F2E0FA95F1F700C06D8D40E0D2
S11302408C8D0E941E0582E08A95F1F700C081E042
S113025001C082E0DF91CF911F910F91FF9008952B
S113026061E00E94490008950F931F93CF93DF9399
S1130270C0E0D0E050C12FEB8AED90E021508040E7
S11302809040E1F700C000008EE18C9FF0018D9F4B
S1130290F00D1124E05AFF4F8081813009F070C0C5
S11302A08F019085818560E0F0E19F9F800D11248E
S11302B00E945405F8019285838560E0F0E19F9FD8
S11302C0800D11240E945405F8019485858560E011
S11302D0F0E19F9F800D11240E945405F80196853A
S11302E0878560E0F0E19F9F800D11240E945405F2
S11302F0F8019089818960E0F0E19F9F800D1124CD
S11303000E945405F8019289838960E0F0E19F9F7F
S1130310800D11240E945405F8019489858960E0B8
S1130320F0E19F9F800D11240E945405F8019689E5
S1130330878960E0F0E19F9F800D11240E9454059D
S1130340F801908D818D60E0F0E19F9F800D112474
S11303500E945405F801928D838D60E0F0E19F9F27
S1130360800D11240E945405F801948D858D60E060
S1130370F0E19F9F800D11240E94540560E357C053
S1130380811154C08EE18C9F80018D9F100D11242A
S1130390005A1F4FF8019089818960E0F0E19F9F26
S11303A0800D11240E945405F8019289838960E02C
S11303B0F0E19F9F800D11240E945405F801948957
S11303C0858960E0F0E19F9F800D11240E9454050F
S11303D0F8019689878960E0F0E19F9F800D1124E0
S11303E00E945405F801908D818D60E0F0E19F9F9B
S11303F0800D11240E945405F801928D838D60E0D4
S1130400F0E19F9F800D11240E945405F801948D02
S1130410858D60E0F0E19F9F800D11240E945405BA
S113042062E08C2F0E94490060E201C060E28EE12C
S11304308C9FF0018D9FF00D1124E05AFF4F8181B4
S1130440813009F468608EE18C9FF0018D9FF00D7E
S11304501124E05AFF4F8281813009F464601C2F1B
S11304608C2F0E94490025E82A95F1F700008EE1BF
S11304708C9FF0018D9FF00D1124E05AFF4F838172
S1130480813011F068E001C06CE08EE18C9FF001D6
S11304908D9FF00D1124E05AFF4F8481813009F4BF
S11304A062608EE18C9FF0018D9FF00D1124E05A63
S11304B0FF4F8581813009F46160812F0E944900DA
S11304C085E88A95F1F70000812F0E943001EFE959
S11304D0FFE03197F1F700C000008EE18C9FF0013E
S11304E08D9FF00D1124E05AFF4F8681813011F069
S11304F064E001C066E08EE18C9FF0018D9FF00DF9
S11305001124E05AFF4F8781813009F46160812F03
S11305100E9449002196C230D1050CF4ACCEDF9183
S1130520CF911F910F910895FF920F931F93CF9333
S1130530DF93833008F0D8C0F62EC82FD0E08EE1C8
S11305408C9F80018D9F100D1124005A1F4FF801BC
S1130550638D40E0828D0E941E05F801618D41E0AB
S1130560808D0E941E05F8018081813009F041C010
S11305708F0161854F2D417080850E941E05F80111
S11305806385F1FA442740F982850E941E05F8012B
S11305906585F2FA442740F984850E941E05F80116
S11305A06785F3FA442740F986850E941E05F80101
S11305B06189F4FA442740F980890E941E05F801F4
S11305C06389F5FA442740F982890E941E05F801DF
S11305D06589F6FA442740F984890E941E05F801CA
S11305E067894F2D441F4427441F86890E941E0596
S11305F05EC081115CC08EE18C9F80018D9F100DC7
S11306001124005A1F4FF8016189F4FA442740F974
S113061080890E941E05F8016389F5FA442740F990
S113062082890E941E05F8016589F6FA442740F97B
S113063084890E941E05F80167894F2D441F4427B1
S1130640441F86890E941E05F801658D41E0848D52
S11306500E941E05F2E0FA95F1F700C0F801658DDD
S113066040E0848D0E941E05F2E0FA95F1F700C087
S1130670F80161894F2D417080890E941E05F8019F
S11306806389F1FA442740F982890E941E05F80122
S11306906589F2FA442740F984890E941E05F8010D
S11306A06789F3FA442740F986890E941E052EE1E2
S11306B02C9FC0012D9F900D1124EC01C05ADF4FD7
S11306C06D8D41E08C8D0E941E05F2E0FA95F1F7E4
S11306D000C06D8D40E08C8D0E941E0582E08A95DD
S11306E0F1F700C081E001C082E0DF91CF911F915A
S11306F00F91FF900895833090F4403190F462306C
S113070090F4EFE9FFE03197F1F700C000006111C8
S1130710405C60E8640F0E94490081E0089582E033
S1130720089584E0089583E00895833088F469305F
S113073088F4493088F4660F660F660F640F605CB6
S11307400E9449008AE68A95F1F700C081E0089585
S113075082E0089585E0089587E00895EF92FF927E
S11307601F93CF93DF938330D8F46930D8F44115C5
S11307705105D1F07A01162FC82FD0E00DC04D2FAE
S1130780612F8C2F0E949503F701ED0FF11D6081FD
S11307908C2F0E949402DF5FD83088F381E005C07B
S11307A082E003C085E001C086E0DF91CF911F9114
S11307B0FF90EF9008950F931F93CF93DF938330AF
S11307C0C8F46930C8F441155105C1F00031C0F4D2
S11307D02230C0F4122FD62FC82F0E94AE03402F10
S11307E0612F8C2F0E947B036D2F8C2F0E9494020B
S11307F081E009C082E007C085E005C086E003C04F
S113080084E001C083E0DF91CF911F910F9108959F
S11308101F93CF93DF93182FEB01833060F420975D
S113082029F40BC0812F0E949402219668816111E2
S1130830F9CF81E003C082E001C086E0DF91CF916F
S11308401F9108950F931F93CF93DF93CDB7DEB716
S11308502A970FB6F894DEBF0FBECDBF082FCB0189
S1130860BA010330C8F56115710581059105C9F414
S113087060E3802F0E94940281E02FC02AE030E0E0
S113088040E050E00E949605E1E0F0E0EC0FFD1F2F
S1130890E10FF11D6083622F732F842F952F1F5F4B
S11308A001C010E0611571058105910539F71B3010
S11308B088F40CC01150E1E0F0E0EC0FFD1FE10FF3
S11308C0F11D6081605D802F0E9494021111F2CFAE
S11308D081E003C088E001C082E02A960FB6F89454
S11308E0DEBF0FBECDBFDF91CF911F910F91089551
S11308F0CF93DF93CDB7DEB728970FB6F894DEBF5A
S11309000FBECDBF0E94340188E0ECE9F0E0DE01C7
S1130910119601900D928A95E1F769E580E00E94B5
S1130920940269E581E00E9494022FEF89E698E140
S1130930215080409040E1F700C000004AE952E0B5
S113094060E070E080E00E9422044AE952E060E046
S113095070E081E00E9422042FEF89E698E12150A3
S113096080409040E1F700C0000064EA70E080E05D
S11309700E94080464EA70E081E00E9408042FEFFA
S113098089E698E1215080409040E1F700C00000E2
S113099069E580E00E94940269E581E00E94940286
S11309A02FEF89E698E1215080409040E1F700C0A4
S11309B0000061E480E00E94940261E481E00E940E
S11309C094022FEF89E698E1215080409040E1F7AE
S11309D000C0000002E021E0AE014F5F5F4F60E025
S11309E080E00E94DB0321E0AE014F5F5F4F60E0D7
S11309F081E00E94DB032FEF89E698E121508040DB
S1130A009040E1F700C0000080E00E94300181E0E6
S1130A100E9430012FEF89E698E1215080409040F8
S1130A20E1F700C0000043E060E080E00E947B0347
S1130A3043E060E081E00E947B036FCF853060F586
S1130A40693060F5423060F590E0FC01EE0FFF1F65
S1130A508E0F9F1FEE27FF27E81BF90BF996411114
S1130A600DC0228181E090E002C0880F991F6A9531
S1130A70E2F780958223828380E00895413091F4E7
S1130A80228181E090E002C0880F991F6A95E2F705
S1130A90822B828380E0089582E0089583E00895A4
S1130AA084E0089580E00895282F22952F708F7098
S1130AB02430A0F58830A0F56230A0F530E0F901CB
S1130AC0EE0FFF1F2E0F3F1FEE27FF27E21BF30B36
S1130AD0F99661110EC0418121E030E0B90102C0F4
S1130AE0660F771F8A95E2F7CB01842B818380E020
S1130AF008956130C9F4418121E030E0B90102C0B8
S1130B00660F771F8A95E2F7CB018095942F98237F
S1130B10918392818923828380E0089582E00895FD
S1130B2083E0089584E0089580E00895A1E21A2EF8
S1130B30AA1BBB1BFD010DC0AA1FBB1FEE1FFF1F7D
S1130B40A217B307E407F50720F0A21BB30BE40BCD
S1130B50F50B661F771F881F991F1A9469F7609514
S1130B607095809590959B01AC01BD01CF010895CE
S1070B70F894FFCF23
S1130B740100010100000100000000010002000363
S1130B840004000500060007010001010102000140
S1130B940001010101000000000000000000020443
S1130BA40205020602070104010501060E0A0E04E9
S10B0BB40E040E00796F7500B8
S9030000FC
