S0150000547261666669635F4C696768742E73726563F9
S11300000C942A000C9434000C9434000C943400A6
S11300100C9434000C9434000C9434000C9434008C
S11300200C9434000C9434000C9434000C9434007C
S11300300C9434000C9434000C9434000C9434006C
S11300400C9434000C9434000C9434000C9434005C
S11300500C94340011241FBECFE5D8E0DEBFCDBF21
S11300600E9436000C9488000C9400008AB38160CE
S11300708ABB8AB382608ABB8AB384608ABB8BB32F
S113008081608BBB2FE784E89EE121508040904043
S1130090E1F700C000008BB38E7F8BBB2FE38DE0B4
S11300A093E0215080409040E1F700C000008BB302
S11300B082608BBB2FE784E89EE121508040904012
S11300C0E1F700C000008BB38D7F8BBB2FE38DE085
S11300D093E0215080409040E1F700C000008BB3D2
S11300E084608BBB2FE784E89EE1215080409040E0
S11300F0E1F700C000008BB38B7F8BBB2FE38DE057
S113010093E0215080409040E1F700C00000B7CF59
S1070110F894FFCF8D
S9030000FC
