:100000000C942A000C943C000C943C000C943C0092
:100010000C943C000C943C000C943C000C943C0070
:100020000C943C000C943C000C943C000C943C0060
:100030000C943C000C943C000C943C000C943C0050
:100040000C943C000C943C000C943C000C943C0040
:100050000C943C0011241FBECFE5D8E0DEBFCDBF1D
:1000600020E0A0E6B0E001C01D92A038B207E1F7A1
:100070000E943E000C94F8000C9400000E94E300E3
:1000800041E061E080E00E945D002FEF80E792E0B8
:10009000215080409040E1F700C0000040E061E066
:1000A00080E00E945D002FEF80E792E021508040C9
:1000B0009040E1F700C00000E3CF853060F5693083
:1000C00060F5423060F590E0FC01EE0FFF1F8E0FEF
:1000D0009F1FEE27FF27E81BF90BF99641110DC072
:1000E000228181E090E002C0880F991F6A95E2F7B3
:1000F00080958223828380E00895413091F42281AB
:1001000081E090E002C0880F991F6A95E2F7822B88
:10011000828380E0089582E0089583E0089584E07A
:10012000089580E00895843008F045C0683008F0F4
:1001300044C0433008F043C090E0FC01EE0FFF1FC5
:100140008E0F9F1FEE27FF27E81BF90BF996411131
:100150000CC0218181E090E002C0880F991F6A9550
:10016000E2F7822B818380E00895413089F4218178
:1001700081E090E002C0880F991F6A95E2F7982FFE
:100180009095922391839281892B828380E00895B8
:100190004230B9F4218181E090E002C0880F991FBC
:1001A0006A95E2F78095922F982391839281892313
:1001B000828380E0089582E0089583E0089586E0D8
:1001C000089580E00895CF93C0E00EC06C2F677053
:1001D000EC2FF0E0E05AFF4F40818C2F86958695FA
:1001E00086950E949300CF5FC03280F3CF9108952F
:0401F000F894FFCFB1
:00000001FF
