:100000000C942A000C9434000C9434000C943400AA
:100010000C9434000C9434000C9434000C94340090
:100020000C9434000C9434000C9434000C94340080
:100030000C9434000C9434000C9434000C94340070
:100040000C9434000C9434000C9434000C94340060
:100050000C94340011241FBECFE5D8E0DEBFCDBF25
:100060000E9436000C9461020C940000CF93DF9341
:1000700000D0CDB7DEB740E060E080E00E948B00AA
:10008000182F41E067E080E00E948B00082F40E0DD
:1000900060E082E00E948B00F82E41E067E082E0A1
:1000A0000E948B00E82E1111FECF0111FCCFF11040
:1000B000FACFE110F8CFAE014F5F5F4F67E080E00D
:1000C0000E941A02C82EAE014E5F5F4F67E082E0C9
:1000D0000E941A02D82EC1100DC08981811105C05D
:1000E00041E060E00E94810105C040E060E080E006
:1000F0000E948101D110D7CF8A81811106C041E0D1
:1001000060E082E00E948101CECF40E060E082E0CA
:100110000E948101C8CF843008F0E3C0683008F045
:10012000E2C0433008F0E1C08130E9F138F08230BC
:1001300009F46EC0833009F4A0C0D9C041110CC0CD
:100140002AB381E090E002C0880F991F6A95E2F718
:10015000822B8ABB80E00895413089F42AB381E084
:1001600090E002C0880F991F6A95E2F7982F90954A
:1001700092239ABB9BB3892B8BBB80E008954230BE
:1001800009F0B7C02AB381E090E002C0880F991F40
:100190006A95E2F78095922F98239ABB9BB38923A7
:1001A0008BBB80E0089541110CC027B381E090E043
:1001B00002C0880F991F6A95E2F7822B87BB80E007
:1001C0000895413089F427B381E090E002C0880FA0
:1001D000991F6A95E2F7982F9095922397BB98B351
:1001E000892B88BB80E00895423009F084C027B392
:1001F00081E090E002C0880F991F6A95E2F7809530
:10020000922F982397BB98B3892388BB80E00895E9
:1002100041110CC024B381E090E002C0880F991F07
:100220006A95E2F7822B84BB80E00895413089F41F
:1002300024B381E090E002C0880F991F6A95E2F72D
:10024000982F9095922394BB95B3892B85BB80E022
:100250000895423009F051C024B381E090E002C01B
:10026000880F991F6A95E2F78095922F982394BB87
:1002700095B3892385BB80E0089541110CC021B35B
:1002800081E090E002C0880F991F6A95E2F7822B07
:1002900081BB80E00895413089F421B381E090E092
:1002A00002C0880F991F6A95E2F7982F90959223C4
:1002B00091BB92B3892B82BB80E008954230F9F460
:1002C00021B381E090E002C0880F991F6A95E2F7A0
:1002D0008095922F982391BB92B3892382BB80E0B3
:1002E000089582E0089583E0089584E0089580E011
:1002F000089580E0089580E0089580E0089580E00A
:100300000895843008F086C0683008F085C0423017
:1003100008F084C0813031F138F0823009F440C0F7
:10032000833009F45AC07CC041110DC02BB381E069
:1003300090E002C0880F991F6A95E2F780958223AA
:100340008BBB80E00895413009F06CC02BB381E095
:1003500090E002C0880F991F6A95E2F7822B8BBB51
:1003600080E0089541110DC028B381E090E002C003
:10037000880F991F6A95E2F78095822388BB80E0F9
:100380000895413009F050C028B381E090E002C0E8
:10039000880F991F6A95E2F7822B88BB80E0089549
:1003A00041110DC025B381E090E002C0880F991F74
:1003B0006A95E2F78095822385BB80E008954130FD
:1003C000A9F525B381E090E002C0880F991F6A95D6
:1003D000E2F7822B85BB80E0089541110DC022B366
:1003E00081E090E002C0880F991F6A95E2F780953E
:1003F000822382BB80E008954130D1F422B381E0B2
:1004000090E002C0880F991F6A95E2F7822B82BBA9
:1004100080E0089582E0089583E0089585E00895DE
:1004200080E0089580E0089580E0089580E00895D8
:1004300080E008958430E8F56830E8F5411551050D
:10044000E1F1813091F028F08230D9F0833029F148
:1004500036C089B390E002C0959587956A95E2F71A
:100460008170FA01808380E0089586B390E002C035
:10047000959587956A95E2F78170FA01808380E00F
:10048000089583B390E002C0959587956A95E2F749
:100490008170FA01808380E0089580B390E002C00B
:1004A000959587956A95E2F78170FA01808380E0DF
:1004B000089582E0089583E0089587E0089580E03C
:0604C0000895F894FFCF3F
:00000001FF
