:100000000C942A000C9447000C9447000C94470071
:100010000C9447000C9447000C9447000C94470044
:100020000C9447000C9447000C9455010C940F015C
:100030000C9447000C9447000C9447000C94470024
:100040000C9447000C9447000C9447000C94470014
:100050000C94470011241FBECFE5D8E0DEBFCDBF12
:1000600010E0A0E6B0E0E0E7F6E002C005900D92F7
:10007000AA36B107D9F720E0AAE6B0E001C01D9288
:10008000A837B207E1F70E9467000C9436030C947E
:1000900000008FB780688FBF0895CF93C0E013C072
:1000A000EC2FF0E0CF01880F991FE80FF91FE05AFD
:1000B000FF4F9081818160E020E1929F800D1124AB
:1000C0000E947A00CF5FC23058F3CF9108950E940A
:1000D0004D000E94BC00C0E00AC08C2F0E94F400BA
:1000E00087EA91E60197F1F700C00000CF5FC436C0
:1000F000A0F3F1CF282F22952F708F702430A0F518
:100100008830A0F56230A0F530E0F901EE0FFF1F56
:100110002E0F3F1FEE27FF27E21BF30BF99661110D
:100120000EC0418121E030E0B90102C0660F771FA7
:100130008A95E2F7CB01842B818380E008956130BA
:10014000C9F4418121E030E0B90102C0660F771F98
:100150008A95E2F7CB018095942F98239183928121
:100160008923828380E0089582E0089583E00895E2
:1001700084E0089580E0089583B7877B83BF93B7B9
:10018000E6E6F0E08081892B83BF83B78F7C83BF55
:1001900093B78281892B83BF8081811109C089B780
:1001A000816089BF8091750082BF0E94490013C0A1
:1001B000883049F489B7826089BF809174008CBF10
:1001C0000E94490008C0803411F0883421F460E0B6
:1001D00083E10E947A0083B7887F83BF93B78091C1
:1001E0006700892B83BF08958536B8F4682F70E0C7
:1001F00080E090E00E943B0220E030E04FE753E4D3
:100200000E94C90220E030E048EC52E40E949A01CA
:100210000E940C026CBF80E0089583E008951F9255
:100220000F920FB60F9211242F933F934F935F932A
:100230006F937F938F939F93AF93BF93EF93FF93AE
:1002400080916C0090916D00892B19F4809175005C
:1002500082BF80916C0090916D00019690936D002B
:1002600080936C0020917200309173008217930785
:1002700058F010926D0010926C00E0917600F091B1
:100280007700309709F00995FF91EF91BF91AF91F9
:100290009F918F917F916F915F914F913F912F919E
:1002A0000F900FBE0F901F9018951F920F920FB6D0
:1002B0000F9211242F933F934F935F936F937F93EC
:1002C0008F939F93AF93BF93EF93FF9380916A00B7
:1002D00090916B00019690936B0080936A00A0E070
:1002E000B0E040916E0050916F006091700070918D
:1002F000710084179507A607B70758F010926B0096
:1003000010926A00E0917600F0917700309709F042
:100310000995FF91EF91BF91AF919F918F917F913F
:100320006F915F914F913F912F910F900FBE0F9062
:100330001F9018950E94AE010C948F020E948802B3
:1003400058F00E94810240F029F45F3F29F00C949C
:10035000780251110C94C3020C947E020E94A002F8
:1003600068F39923B1F3552391F3951B550BBB27E4
:10037000AA2762177307840738F09F5F5F4F220F29
:10038000331F441FAA1FA9F335D00E2E3AF0E0E820
:1003900032D091505040E695001CCAF72BD0FE2F6A
:1003A00029D0660F771F881FBB1F261737074807FE
:1003B000AB07B0E809F0BB0B802DBF01FF279358B6
:1003C0005F4F3AF09E3F510578F00C9478020C9400
:1003D000C3025F3FE4F3983ED4F386957795679523
:1003E000B795F7959F5FC9F7880F911D96958795EB
:1003F00097F90895E1E0660F771F881FBB1F62170A
:1004000073078407BA0720F0621B730B840BBA0BC7
:10041000EE1F88F7E09508950E94A80288F09F5784
:1004200098F0B92F9927B751B0F0E1F0660F771F18
:10043000881F991F1AF0BA95C9F714C0B13091F00E
:100440000E94C202B1E008950C94C202672F782F77
:100450008827B85F39F0B93FCCF3869577956795D3
:10046000B395D9F73EF490958095709561957F4F3F
:100470008F4F9F4F0895E89409C097FB3EF49095E5
:100480008095709561957F4F8F4F9F4F9923A9F06D
:10049000F92F96E9BB279395F695879577956795FC
:1004A000B795F111F8CFFAF4BB0F11F460FF1BC040
:1004B0006F5F7F4F8F4F9F4F16C0882311F096E9D3
:1004C00011C0772321F09EE8872F762F05C0662381
:1004D00071F096E8862F70E060E02AF09A95660F3A
:1004E000771F881FDAF7880F9695879597F90895F3
:1004F00097F99F6780E870E060E008959FEF80ECD7
:10050000089500240A941616170618060906089579
:1005100000240A9412161306140605060895092EDF
:100520000394000C11F4882352F0BB0F40F4BF2B4E
:1005300011F460FF04C06F5F7F4F8F4F9F4F08958E
:1005400057FD9058440F551F59F05F3F71F0479584
:10055000880F97FB991F61F09F3F79F08795089569
:10056000121613061406551FF2CF4695F1DF08C088
:10057000161617061806991FF1CF869571056105A5
:1005800008940895E894BB2766277727CB0197F94D
:1005900008950E94DC020C948F020E94810238F0C0
:1005A0000E94880220F0952311F00C9478020C949C
:1005B0007E0211240C94C3020E94A00270F3959F46
:1005C000C1F3950F50E0551F629FF001729FBB274A
:1005D000F00DB11D639FAA27F00DB11DAA1F649FE6
:1005E0006627B00DA11D661F829F2227B00DA11D99
:1005F000621F739FB00DA11D621F839FA00D611D1F
:10060000221F749F3327A00D611D231F849F600D3F
:10061000211D822F762F6A2F11249F5750409AF068
:10062000F1F088234AF0EE0FFF1FBB1F661F771FF4
:10063000881F91505040A9F79E3F510580F00C94BF
:1006400078020C94C3025F3FE4F3983ED4F386959E
:1006500077956795B795F795E7959F5FC1F7FE2B5F
:10066000880F911D9695879597F90895F894FFCF77
:0A0670000000000001014802200014
:00000001FF
