S01D0000534556454E5345475F4452495645525F4255494C442E73726563AD
S11300000C942A000C943F000C943F000C943F0085
S11300100C943F000C943F000C943F000C943F0060
S11300200C943F000C943F000C943F000C943F0050
S11300300C943F000C943F000C943F000C943F0040
S11300400C943F000C943F000C943F000C943F0030
S11300500C943F0011241FBECFE5D8E0DEBFCDBF16
S113006010E0A0E6B0E0E8EEF4E002C005900D92E6
S1130070AA39B107D9F70E94C5010C9472020C94F5
S113008000001F93CF93DF9310E058C023E1129F29
S1130090E0011124CC58DF4F9881898160E020E190
S11300A0929F800D11240E9421029A818B8160E02D
S11300B020E1929F800D11240E9421029C818D8158
S11300C060E020E1929F800D11240E9421029E8114
S11300D08F8160E020E1929F800D11240E94210213
S11300E09885898560E020E1929F800D11240E940B
S11300F021029A858B8560E020E1929F800D112476
S11301000E9421029C858D8560E020E1929F800DF4
S113011011240E9421029E858F8560E020E1929F38
S1130120800D11240E9421029889898960E020E1D0
S1130130929F800D11240E9421021F5F123008F447
S1130140A5CFDF91CF911F9108950F931F93CF9364
S1130150DF93833008F07FC06A3008F07EC0162F2A
S1130160C82FD0E083E18C9FF0018D9FF00D112406
S1130170EC58FF4F82898130A1F483E18C9FF00118
S11301808D9FF00D1124EC58FF4F618941E0808967
S11301900E94EB01E12FF0E0E05AFF4F008110E0F4
S11301A018C0811114C083E18C9FF0018D9FF00D64
S11301B01124EC58FF4F618940E080890E94EB01D3
S11301C0E12FF0E0E659FF4F008110E002C000E0AB
S11301D014E023E12C9FC0012D9F900D1124EC010C
S11301E0CC58DF4F6981402F417088810E94EB0118
S11301F06B8101FB442740F98A810E94EB016D81E8
S113020002FB442740F98C810E94EB016F8103FBC0
S1130210442740F98E810E94EB01698504FB442741
S113022040F988850E94EB016B8505FB442740F962
S11302308A850E94EB016D8506FB442740F98C8575
S11302400E94EB016F85402F441F4427441F8E8575
S11302500E94EB0103C015E001C016E0812FDF917D
S1130260CF911F910F9108958F929F92AF92BF9259
S1130270CF92DF92EF92FF920F931F93CF93DF936E
S1130280CDB7DEB7AC01CDB6DEB69C0110E00CC034
S11302901F5FADECBCEC0E9463029C013695279570
S11302A036952795369527952115310589F713300D
S11302B008F058C08DB69EB6812F90E05C0121E015
S11302C0A21AB1082DB73EB7281B390B0FB6F89404
S11302D03EBF0FBE2DBF8DB79EB701967C01E0E0F7
S11302E02AC09A01ADECBCEC0E94630296958795F6
S11302F096958795969587959C01220F331F880FB5
S1130300991F880F991F880F991F820F931F9A01B5
S1130310281B390BD701AE0FB11D2C939A01ADECFC
S1130320BCEC0E946302AC015695479556954795DF
S113033056954795EF5FE117A0F200E00AC0F5017A
S1130340E01BF109EE0DFF1D6081802F0E94A500C6
S11303500F5F0117A0F30FB6F8949EBE0FBE8DBEBB
S113036080E001C087E00FB6F894DEBE0FBECDBEBC
S1130370DF91CF911F910F91FF90EF90DF90CF907D
S1130380BF90AF909F908F9008950E944100C0E06D
S113039012C06C2F80E00E94A5006C2F81E00E94A7
S11303A0A5002FEF89E698E1215080409040E1F7C5
S11303B000C00000CF5FCA3060F388E390E00E9481
S11303C034012FEF89E698E1215080409040E1F715
S11303D000C00000DCCF853060F5693060F5423044
S11303E060F590E0FC01EE0FFF1F8E0F9F1FEE27BC
S11303F0FF27E81BF90BF99641110DC0228181E01A
S113040090E002C0880F991F6A95E2F780958223D5
S1130410828380E00895413091F4228181E090E06C
S113042002C0880F991F6A95E2F7822B828380E0CD
S1130430089582E0089583E0089584E0089580E0BB
S11304400895282F22952F708F702430A0F58830BE
S1130450A0F56230A0F530E0F901EE0FFF1F2E0F7A
S11304603F1FEE27FF27E21BF30BF99661110EC025
S1130470418121E030E0B90102C0660F771F8A95FF
S1130480E2F7CB01842B818380E008956130C9F4C5
S1130490418121E030E0B90102C0660F771F8A95DF
S11304A0E2F7CB018095942F98239183928189233D
S11304B0828380E0089582E0089583E0089584E0D3
S11304C0089580E00895A29FB001B39FC001A39F47
S11304D0700D811D1124911DB29F700D811D112479
S10B04E0911D0895F894FFCF6B
S11304E8C0F9A4B0999282F880903F065B4F666D7C
S11304F87D077F6F00010002000300040005000669
S113050800070000020000010101020103010401C7
S10D051805010601070100020101BC
S9030000FC
